:020000040000fa
:080000000002040000000000f2
:020000040000fa
:04000800ac04000044
:020000040000fa
:04000c00ac04000040
:020000040000fa
:04001000ac0400003c
:020000040000fa
:04001400ac04000038
:020000040000fa
:04001800ac04000034
:020000040000fa
:04001c00ac04000030
:020000040000fa
:04002000ac0400002c
:020000040000fa
:04002400ac04000028
:020000040000fa
:04002800ac04000024
:020000040000fa
:04002c00e6030000e7
:020000040000fa
:04003000ac0400001c
:020000040000fa
:04003400ac04000018
:020000040000fa
:04003800ac04000014
:020000040000fa
:04003c00ac04000010
:020000040000fa
:04004000ac0400000c
:020000040000fa
:04004400ac04000008
:020000040000fa
:04004800c8020000ea
:020000040000fa
:04004c00ac04000000
:020000040000fa
:04005000ac040000fc
:020000040000fa
:04005400ac040000f8
:020000040000fa
:04005800ac040000f4
:020000040000fa
:04005c00ac040000f0
:020000040000fa
:04006000ac040000ec
:020000040000fa
:04006400ac040000e8
:020000040000fa
:04006800ac040000e4
:020000040000fa
:04006c00ac040000e0
:020000040000fa
:04007000ac040000dc
:020000040000fa
:04007400ac040000d8
:020000040000fa
:04007800ac040000d4
:020000040000fa
:04007c00ac040000d0
:020000040000fa
:04008000ac040000cc
:020000040000fa
:04008400ac040000c8
:020000040000fa
:04008800ac040000c4
:020000040000fa
:04008c00ac040000c0
:020000040000fa
:04009000ac040000bc
:020000040000fa
:04009400ac040000b8
:020000040000fa
:04009800ac040000b4
:020000040000fa
:04009c00ac040000b0
:020000040000fa
:0400a000ac040000ac
:020000040000fa
:0400a400ac040000a8
:020000040000fa
:0400a800ac040000a4
:020000040000fa
:0400ac00ac040000a0
:020000040000fa
:0400b000ac0400009c
:020000040000fa
:0400b400ac04000098
:020000040000fa
:0400b800ac04000094
:020000040000fa
:0400bc00ac04000090
:020000040000fa
:0400c000ac0400008c
:020000040000fa
:0400c400ac04000088
:020000040000fa
:0400c800ac04000084
:020000040000fa
:0400cc00ac04000080
:020000040000fa
:0400d000ac0400007c
:020000040000fa
:0400d400ac04000078
:020000040000fa
:0400d800ac04000074
:020000040000fa
:0400dc00ac04000070
:020000040000fa
:0400e000ac0400006c
:020000040000fa
:0400e400ac04000068
:020000040000fa
:0400e800ac04000064
:020000040000fa
:0400ec00ac04000060
:020000040000fa
:0400f000ac0400005c
:020000040000fa
:0400f400ac04000058
:020000040000fa
:0400f800ac04000054
:020000040000fa
:0400fc00ac04000050
:020000040000fa
:04010000ac0400004b
:020000040000fa
:04010400ac04000047
:020000040000fa
:04010800ac04000043
:020000040000fa
:04010c00ac0400003f
:020000040000fa
:04011000ac0400003b
:020000040000fa
:04011400ac04000037
:020000040000fa
:04011800ac04000033
:020000040000fa
:04011c00ac0400002f
:020000040000fa
:04012000ac0400002b
:020000040000fa
:04012400ac04000027
:020000040000fa
:04012800ac04000023
:020000040000fa
:04012c00ac0400001f
:020000040000fa
:04013000ac0400001b
:020000040000fa
:04013400ac04000017
:020000040000fa
:04013800ac04000013
:020000040000fa
:04013c00ac0400000f
:020000040000fa
:04014000ac0400000b
:020000040000fa
:04014400ac04000007
:020000040000fa
:04014800ac04000003
:020000040000fa
:04020800ac04000042
:020000040000fa
:04020c00ac0400003e
:020000040000fa
:04021000ac0400003a
:020000040000fa
:04021400ac04000036
:020000040000fa
:04021800ac04000032
:020000040000fa
:04021c00ac0400002e
:020000040000fa
:04022000ac0400002a
:020000040000fa
:04022400ac04000026
:020000040000fa
:04022800ac04000022
:020000040000fa
:04022c00e6030000e5
:020000040000fa
:04023000ac0400001a
:020000040000fa
:04023400ac04000016
:020000040000fa
:04023800ac04000012
:020000040000fa
:04023c00ac0400000e
:020000040000fa
:04024000ac0400000a
:020000040000fa
:04024400ac04000006
:020000040000fa
:04024800c8020000e8
:020000040000fa
:04024c00ac040000fe
:020000040000fa
:04025000ac040000fa
:020000040000fa
:04025400ac040000f6
:020000040000fa
:04025800ac040000f2
:020000040000fa
:04025c00ac040000ee
:020000040000fa
:04026000ac040000ea
:020000040000fa
:04026400ac040000e6
:020000040000fa
:04026800ac040000e2
:020000040000fa
:04026c00ac040000de
:020000040000fa
:04027000ac040000da
:020000040000fa
:04027400ac040000d6
:020000040000fa
:04027800ac040000d2
:020000040000fa
:04027c00ac040000ce
:020000040000fa
:04028000ac040000ca
:020000040000fa
:04028400ac040000c6
:020000040000fa
:04028800ac040000c2
:020000040000fa
:04028c00ac040000be
:020000040000fa
:04029000ac040000ba
:020000040000fa
:04029400ac040000b6
:020000040000fa
:04029800ac040000b2
:020000040000fa
:04029c00ac040000ae
:020000040000fa
:0402a000ac040000aa
:020000040000fa
:0402a400ac040000a6
:020000040000fa
:0402a800ac040000a2
:020000040000fa
:0402ac00ac0400009e
:020000040000fa
:0402b000ac0400009a
:020000040000fa
:0402b400ac04000096
:020000040000fa
:0402b800ac04000092
:020000040000fa
:0402bc00ac0400008e
:020000040000fa
:0402c000ac0400008a
:020000040000fa
:0402c400ac04000086
:020000040000fa
:0402c800ac04000082
:020000040000fa
:0402cc00ac0400007e
:020000040000fa
:0402d000ac0400007a
:020000040000fa
:0402d400ac04000076
:020000040000fa
:0402d800ac04000072
:020000040000fa
:0402dc00ac0400006e
:020000040000fa
:0402e000ac0400006a
:020000040000fa
:0402e400ac04000066
:020000040000fa
:0402e800ac04000062
:020000040000fa
:0402ec00ac0400005e
:020000040000fa
:0402f000ac0400005a
:020000040000fa
:0402f400ac04000056
:020000040000fa
:0402f800ac04000052
:020000040000fa
:0402fc00ac0400004e
:020000040000fa
:04030000ac04000049
:020000040000fa
:04030400ac04000045
:020000040000fa
:04030800ac04000041
:020000040000fa
:04030c00ac0400003d
:020000040000fa
:04031000ac04000039
:020000040000fa
:04031400ac04000035
:020000040000fa
:04031800ac04000031
:020000040000fa
:04031c00ac0400002d
:020000040000fa
:04032000ac04000029
:020000040000fa
:04032400ac04000025
:020000040000fa
:04032800ac04000021
:020000040000fa
:04032c00ac0400001d
:020000040000fa
:04033000ac04000019
:020000040000fa
:04033400ac04000015
:020000040000fa
:04033800ac04000011
:020000040000fa
:04033c00ac0400000d
:020000040000fa
:04034000ac04000009
:020000040000fa
:04034400ac04000005
:020000040000fa
:04034800ac04000001
:020000040000fa
:10040000ef8020000e7f22000e0188000000000017
:10041000000020000000e000020032000001200087
:1004200020028800140007004d0107000000e000d2
:1004300003003a0000be2000010020000200370047
:100440000000200001002000810f70000100320038
:1004500014000700000020000000e000020032004d
:100460000000020000000000320a0200000000004c
:100470000040da000000fe004440a9000002200015
:100480000000e0000300320000002000a00188000e
:100490004440a800000006008a1f78008b1f7800e7
:1004a0000000060091018800800478000000eb0045
:1004b0001a003700e284440032a0b4009905ba0063
:1004c000e284440032a0b4009906ba00e2844400f9
:1004d00032a0b4000006eb00476fde00fd07b2005b
:1004e000636ce10003003a00ebff07000000eb0043
:1004f0000a003700606ce10004003a00005deb0088
:100500008b05e900fdff3e00040037006168e10053
:10051000010032000086eb000b00070019c7ba008b
:100520001905ba000e04e00003003a000a00e000da
:10053000e0ff3a0000000600fe07b2009e018800be
:100540008a047800f5ff3700395dba008b05e900b1
:100550000c003200295dba008b05e900080032006a
:100560000c00e00003003a00e284440032a0b40032
:10057000f5ff370019ddba008b05e900faff3a00f4
:100580008904e800e184440032a0b40000000600c1
:100590003600f800809fbe00829fbe00849fbe0090
:1005a000869fbe003400f80000002000a0018800f3
:1005b0000600fa008500a90020408000314080003c
:1005c00061004000e0804800204088003140880001
:1005d0002040800031408000420620000289b9009e
:1005e000020178006002b900840178000301410033
:1005f000430620000300b80001014100820078009a
:10060000825184006311b900020178008001eb007f
:100610001c010700008fbe001e00be00e00f50004e
:10062000e08f580002003a0050c0b30001003700cc
:100630000040eb000080fb0067006000820c80003f
:1006400081ff2f008100610001007000800c880094
:10065000805184008000eb00be0f5000ae8f580028
:1006600002003a0050c0b300010037000040eb0028
:100670000080fb0067006000b20c800081ff2f004b
:100680008100610001007000b00c8800805184007e
:10069000000040008000eb00be0f5000ae8f5800fd
:1006a00002003a0050c0b300010037000040eb00e8
:1006b0000080fb0067006000e20c800081ff2f00db
:1006c0008100610001007000e00c880000408000a3
:1006d0004f00de0040479800104080004f00de00d1
:1006e000504798004e4090000080fb000000e90059
:1006f0004f00de0080007800004080000088b900d4
:10070000000178004e4090008080fb000040800097
:100710000000ea000088b9000000780000004100f5
:10072000000c88005e4090000080fb000000e900a3
:100730004f00de0080007800104080000088b90083
:10074000000178005e4090008080fb001040800037
:100750000000ea000088b9000000780000004100b5
:10076000300c88004e409000614060000080fb002b
:10077000610060004d00dd005116800001d0a10035
:1007800001007000501688005e40900061406000db
:100790000080fb00610060004e00dd00511680000b
:1007a00001e0a10001007000501688000080fa00ee
:1007b0003400f9004f03be004f02be004f01be00df
:1007c0004f00be003600f900004006003600f80079
:1007d000809fbe00829fbe00849fbe00869fbe0099
:1007e0003400f80000002000a00188000a00fa0090
:1007f0008420a900000a80006102b8002040800027
:1008000031408000420620000289b90002017800d0
:100810006003b9008601780003014100430620000f
:100820000300b8000101410082007800040040008c
:1008300085804800008fbe00805184006300b900ad
:10084000000078008000eb001e02be000001be0028
:100850000400be007c0007002007980031079800c4
:10086000805184006101b8002e009000be0090000d
:10087000800f5100818f59000a003d008051840093
:10088000000040006101b8002e009000be00900002
:10089000800f5100818f59000200350014002000a4
:1008a000010037000002eb0080518400000040008e
:1008b0006101b8002e009000be009000800f510032
:1008c000818f59000b003d00805184006300b90006
:1008d000000078006101b8002e009000be0090007a
:1008e000800f5100818f5900020035001000200058
:1008f000010037000000eb00000040000000420053
:10090000400798002e019000815184004e00900015
:100910000088b900000078000000510080007800d5
:100920004e00900000014000808020000000410047
:1009300001087800cb22a9000080fa003400f900f9
:100940004f03be004f02be004f01be004f00be006d
:100950003600f900004006000040da000000fe000a
:10096000000005000001be00220007000470a7007f
:1009700003f0a1006509b100160032000d0035003a
:100980006828e10006003500f0ff2f00f1ff270086
:100990000300e00013003b000100280000000500f8
:1009a00000004000818048008502e900fcff3a0019
:1009b00008003700f88f420002003c008000eb0086
:1009c000000005008100d1000080d3008502e8000e
:1009d000fcff3a000300e00002003b006000100052
:1009e000e0801800000006004f89de0082017800d8
:1009f00017023700c70ade00f107b200f50fb20098
:100a000008003200e1cf4200020032000170a00075
:100a100024000500810f7000010032000408050069
:100a200044000500810f700002003a001400050028
:100a30008502e9000000400081c04800fcff3b0047
:100a40000170a00024000500811f78000100e00073
:100a500002003d0060001000e08018000300e0008c
:100a600002003d0060011100e0811900050007004f
:100a70004f00e00002003b0060001000e080180022
:100a800000000600570207000400be000000060038
:100a900007f82700078361000638e10004003a00e8
:100aa000f7072000878361008703710001003a0087
:100ab00003f0a200889fbe008a9fbe008c9fbe00ec
:100ac000470ade000480a100c71ade000580a100ed
:100ad000070028000785600087856100f70f200068
:100ae0000720e1009e0032000728e1009c00320050
:100af000010678000400e000b4003200f70720008f
:100b0000878060000170a0000500e000c000320096
:100b1000f7072000878161000370a00005065200de
:100b20000f003a000b50e1000b0032000308e10017
:100b300002003a000200e1007e0032000204500090
:100b400083845800040031000001fd008101fd0094
:100b50008402fd008a05fd006044b80021003700d2
:100b60000520e10005003d000001fd008101fd00c0
:100b70008402fd008a05fd00050652007a60e1004e
:100b8000050035000170a1004722dd00848070005f
:100b90008a807000630037006044b800ef0266008e
:100ba00007ff2f00070666000500e000060034007e
:100bb000f08312008714dd000511de00071bdd0045
:100bc000060171008519de007060e1000500350046
:100bd0000904780082047800030178008001eb00aa
:100be000700656000b50e10003003a00020040007e
:100bf000838048000400370060041400e0841c0077
:100c000002005800838058000188a30006003200cb
:100c10008100d1000080d3008984d3000884d300f0
:100c20000402e800270037000178a30025003a00fd
:100c30000100e000030032008186cf006986560083
:100c40000a0037008c0020000000e00004003a0099
:100c500009007800880478000004eb00700252005c
:100c60008086cf000d0646000c06e9007060e100aa
:100c700006003500800078000900780088047800bc
:100c80000004eb0070065600700252000c00e000f9
:100c90000c0034008c08dd00f00316000703de00b2
:100ca000868070000c00dd00074bde00060070003f
:100cb0008c4cdd000743de00868474000c44dd00ac
:100cc0000c0252006120e10020003500610160004b
:100cd0000700280087816400f7ff270087836400ee
:100ce000070374000300e000060032008203730073
:100cf000040032000000e800e08048000188a30002
:100d00000e003a00f70f20000720e1004a003d00e6
:100d10000170a1004722dd00810072008a8070000e
:100d20000000be004f06be004f05be004f04be00cf
:100d3000000006006000b800faff37008100d10013
:100d40000080d3000402e800eeff370004017800c1
:100d500089017400c20007008a807000f1ff37002b
:100d600018010700070278000001fd008101fd0065
:100d70001401070087027800850372000778a3003a
:100d8000040032000001fd008101fd002701070081
:100d9000e4ff3700850362000768a3000800320003
:100da0000b50e10003003200f0ff2f00f1ff27009d
:100db000dcff37000001fd008101fd00d9ff370095
:100dc0000468a300d7ff3200faff3700f8ff2700be
:100dd000888360000b003a000000e00009003a0040
:100de0008303640082837300020032000200be00ad
:100df000ccff37000b50e100ceff3a000200be00ee
:100e0000c8ff370014002000810064003eff370057
:100e1000f8ff27008883610004003a000200e00028
:100e200002003a008c007800beff37001500200059
:100e30008301640039ff370001f82700000020001b
:100e400081007500b7ff37000383680007002800a2
:100e500007036300470ade000480a100c71ade0012
:100e60000580a100f70f20000720e10042003200ba
:100e70000728e10040003200889fbe008a9fbe0024
:100e80008c1f7800f107b200f307b2000400e00005
:100e9000640032000170a0000500e000680032002c
:100ea0000370a00085054200eb07b1000204b80002
:100eb0000302b8008484440060854a00020ab80036
:100ec000848444000a854a00030ab80004054500ea
:100ed000040033000804d0008984d2000a85d200bf
:100ee0008b05e9006158e1003d003500021020004b
:100ef000090161000308200089816100f7072000d3
:100f00008783640008867300c84cde00c853dd0088
:100f1000878474004855de000300e00006003200bc
:100f200082037600040032008904e80060054d0069
:100f30000a88a3000c003a00f70f20000758e100d0
:100f400044003d000a70a100c75ddd000a85750000
:100f50008a007300090078004f0678004f05be0034
:100f60004f04be00000006000a05d1008984d300aa
:100f70008b05e800f0ff3700881f78000604780032
:100f800090000700070278000001fd008101fd00cc
:100f90008c00070087027800850372000778a300a1
:100fa000050032000001fd008101fd009f000700e7
:100fb0004f04780000000600850372000748a30074
:100fc00003003200f0ff2f00f1ff2700f8ff370089
:100fd0000000200001f8270088807000f4ff37002f
:100fe000880178004848dd00808171004848de00b3
:100ff000c850dd0001007000c850de000604780013
:101000000b0178001600070088807000d2ff3700bf
:101010000500e00005003200170020003a0007003c
:101020009dff370081037000f9ff3a0086007800c9
:101030004f0678004f05be004f04be0000000500bb
:1010400083037100f9ff3200270020002e00070003
:1010500094ff370001f8270086807000f4ff370006
:101060000100e00026003200610111007810e1006b
:1010700023003c006022b8007010e100040035003d
:1010800080027800010078008000eb0070015100c0
:101090000200e0000900340070031100062add00a0
:1010a000822ade008603dd00878272000200de00f5
:1010b000860bdd00070070008208de00848171006d
:1010c000f4ff27000482620084817100040028007c
:1010d000848262006102600005f0a6000000060044
:1010e00004827100070032000000e800e080480040
:1010f000000006000002be006000b800efff3700ed
:101100006000b80000000600889fbe000004eb00ed
:101110006138e10016003a000100e00008003a00e2
:10112000c800de004800dd00880020000100e0006b
:1011300003003a00c800de004800dd0068044400f7
:101140008184cf00e9845400060034008908dd0062
:10115000f08314008703de00878070000900dd0043
:1011600009044400610214004f04be0000000600a0
:101170000300e00008003a00c811de004811dd005d
:10118000880020000300e00003003a00c811de00e0
:101190004811dd00680444008384cf00e9845400d2
:1011a000060034008919dd00f08314008713de0087
:1011b000878171000911dd0009044400e102140077
:1011c000e9ff37002700200001f0a70017002000ea
:1011d000470bde00f60fb200040032000643e800c1
:1011e0000a0032004702b300000006000103780045
:1011f000f607b2000603700002003a000703b300ce
:10120000000006008702b30000000600010378001a
:10121000f607b20006037000020032000770a0005b
:10122000000006000760a000000006000478a3008c
:10123000040032000578a300030032000168a30017
:1012400001003a000200be000160a000000006009c
:10125000881f7800030478000300e00007003d00c9
:1012600060001000e080180060011900e0811900a2
:1012700002003b0001f02d000300370004000700ce
:1012800008f0a70001f0a0004f047800000006005d
:10129000889fbe008a9fbe00008270000402710019
:1012a00004827100260032000004be000200be006d
:1012b0006011b8006b092000950220000182cf0068
:1012c0000a0039000541b1000082cf000700390053
:1012d0000541b1000982cf00040039000541b10089
:1012e0000882cf00010039000541b10005425200db
:1012f000120032000a003b0082817100610164002b
:101300008100d1000080d3008984d3000884d300f9
:101310008b05e8000442e800f7ff3a0007003700b9
:101320000804440089844c00000048008180480083
:101330008b05e9000442e900f9ff3a0003000700c9
:101340004f05be004f04be000000060081002000d3
:10135000618055000b003d000b00200061fe2f0056
:101360000100e1001d003400828171006101640010
:101370008904d1000884d3000000e800faff3a0095
:101380007100200061006400030070000200600032
:101390000900320061044400e0844c000988a50083
:1013a000050032008b05e8006808e10002003a0001
:1013b0008904d1000884d300f20f20000258e10014
:1013c00005003d00c75ddd00f907b20089807500aa
:1013d00008007800000006000bf827008b0078005a
:1013e000000005006022b800060220000000d000c6
:1013f0008180d2000482d2008582d2000000a00049
:101400000202520083825a000300310002024200ad
:1014100083824a000000a1000603e900f3ff3a00be
:0414200000000600c2
:020000040000fa
:10142400cdcc00004c3d0000cdcc00004c3d000074
:1014340000000000000000000000000000000000a8
:10144400cdcc00004c3d0000cdcc00004c3d000054
:10145400d0070000e40c0000d0070000204e00007c
:020000040000fa
:101464000000fa00889fbe008a9fbe005300070058
:1014740098508400a9508400414080005051840059
:1014840000805000cf80de0056fd07000001be0042
:101494000800be006bfe07000004be00ba508400c2
:1014a400cb50840051408000605184000080500083
:1014b400cf80de004bfd07000001be000a00be0025
:1014c40060fe07000001be000800be0078fd0700b2
:1014d4000004be00da508400eb50840061408000b8
:1014e4007051840000805000cf80de003dfd070075
:1014f4000001be000a00be0052fe07000001be004b
:101504000800be006afd070015fd07000000780012
:1015140000408800f8508400095184004140800054
:101524005051840000805000cf80de002dfd070064
:101534000001be000800be0042fe07000004be0019
:101544001a5184002b518400514080006051840062
:1015540000805000cf80de0022fd07000001be00a5
:101564000a00be0037fe07000001be000800be00ee
:101574004ffd07000004be003a5184004b51840023
:10158400614080007051840000805000cf80de00f4
:1015940014fd07000001be000a00be0029fe07007a
:1015a4000001be000800be0041fd0700ecfc07007e
:1015b4000000780010408800adff37000000fa00fa
:1015c4000080eb006019880000102000401688009d
:1015d400113a8000f00b20000081600060042000bc
:1015e4007105200023742000804978008149780027
:1015f400824978007134800000fe2f000080600072
:101604000030a000703488003136800000fe2f00c6
:10161400008060003001b30030368800313680002d
:10162400f00f2e0080806000002021000100700077
:10163400303688005136800000fe2f0000806000a4
:101644004001b3005036880051368000f00f2e0060
:101654008080600000502100010070005036880036
:101664006136800000fe2f00008060006001b3003e
:1016740060368800103a8000000178000260a00003
:101684006004200071052000237420008049780044
:101694008149780082497800cb22a8009108800013
:1016a400f0fc2f00008060000040a000900888003b
:1016b4000a21ef008500a900300620007008880088
:1016c4009500a80013e1a8008421ef008221ef0017
:1016d4008021ef008461a800210c800080ff2f008e
:1016e400008060006000b300200c88008a21ef00b5
:1016f4008821ef008621ef008a61a800510c800048
:1017040080ff2f00008060006000b300500c880050
:101714009021ef0090052000700c88003006200016
:10172400600c88009061a800810c800080ff2f006d
:10173400008060005000b300800c88009621ef0008
:1017440090052000a00c880030062000900c880032
:101754009661a800b10c800080ff2f00008060001b
:101764005000b300b00c88009c21ef0090052000cd
:10177400d00c880030062000c00c88009c61a800b2
:10178400e10c800080ff2f00008060005000b30057
:10179400e00c88009420a8004221ef0042e1a90057
:1017a400110a800080ff2f00008060000010a0005c
:0c17b400100a88000080fa000000060007
:020000040000fa
:1017c00008080000060000000000000000080000fb
:0c17d00008000000000000000000000005
:020000040000fa
:020000040001f9
:0457f8000ff90000a5
:020000040000fa
:020000040001f9
:0457fc007f3f0000eb
:00000001FF
