:020000040000fa
:080000000002040000000000f2
:020000040000fa
:04000800640300008d
:020000040000fa
:04000c006403000089
:020000040000fa
:040010006403000085
:020000040000fa
:040014006403000081
:020000040000fa
:04001800640300007d
:020000040000fa
:04001c006403000079
:020000040000fa
:040020006403000075
:020000040000fa
:040024006403000071
:020000040000fa
:04002800640300006d
:020000040000fa
:04002c006403000069
:020000040000fa
:040030006403000065
:020000040000fa
:040034006403000061
:020000040000fa
:04003800640300005d
:020000040000fa
:04003c006403000059
:020000040000fa
:040040006403000055
:020000040000fa
:040044006403000051
:020000040000fa
:04004800c8020000ea
:020000040000fa
:04004c006403000049
:020000040000fa
:040050006403000045
:020000040000fa
:040054006403000041
:020000040000fa
:04005800640300003d
:020000040000fa
:04005c006403000039
:020000040000fa
:040060006403000035
:020000040000fa
:040064006403000031
:020000040000fa
:04006800640300002d
:020000040000fa
:04006c006403000029
:020000040000fa
:040070006403000025
:020000040000fa
:040074006403000021
:020000040000fa
:04007800640300001d
:020000040000fa
:04007c006403000019
:020000040000fa
:040080006403000015
:020000040000fa
:040084006403000011
:020000040000fa
:04008800640300000d
:020000040000fa
:04008c006403000009
:020000040000fa
:040090006403000005
:020000040000fa
:040094006403000001
:020000040000fa
:0400980064030000fd
:020000040000fa
:04009c0064030000f9
:020000040000fa
:0400a00064030000f5
:020000040000fa
:0400a40064030000f1
:020000040000fa
:0400a80064030000ed
:020000040000fa
:0400ac0064030000e9
:020000040000fa
:0400b00064030000e5
:020000040000fa
:0400b40064030000e1
:020000040000fa
:0400b80064030000dd
:020000040000fa
:0400bc0064030000d9
:020000040000fa
:0400c00064030000d5
:020000040000fa
:0400c40064030000d1
:020000040000fa
:0400c80064030000cd
:020000040000fa
:0400cc0064030000c9
:020000040000fa
:0400d00064030000c5
:020000040000fa
:0400d40064030000c1
:020000040000fa
:0400d80064030000bd
:020000040000fa
:0400dc0064030000b9
:020000040000fa
:0400e00064030000b5
:020000040000fa
:0400e40064030000b1
:020000040000fa
:0400e80064030000ad
:020000040000fa
:0400ec0064030000a9
:020000040000fa
:0400f00064030000a5
:020000040000fa
:0400f40064030000a1
:020000040000fa
:0400f800640300009d
:020000040000fa
:0400fc006403000099
:020000040000fa
:040100006403000094
:020000040000fa
:040104006403000090
:020000040000fa
:04010800640300008c
:020000040000fa
:04010c006403000088
:020000040000fa
:040110006403000084
:020000040000fa
:040114006403000080
:020000040000fa
:04011800640300007c
:020000040000fa
:04011c006403000078
:020000040000fa
:040120006403000074
:020000040000fa
:040124006403000070
:020000040000fa
:04012800640300006c
:020000040000fa
:04012c006403000068
:020000040000fa
:040130006403000064
:020000040000fa
:040134006403000060
:020000040000fa
:04013800640300005c
:020000040000fa
:04013c006403000058
:020000040000fa
:040140006403000054
:020000040000fa
:040144006403000050
:020000040000fa
:04014800640300004c
:020000040000fa
:04020800640300008b
:020000040000fa
:04020c006403000087
:020000040000fa
:040210006403000083
:020000040000fa
:04021400640300007f
:020000040000fa
:04021800640300007b
:020000040000fa
:04021c006403000077
:020000040000fa
:040220006403000073
:020000040000fa
:04022400640300006f
:020000040000fa
:04022800640300006b
:020000040000fa
:04022c006403000067
:020000040000fa
:040230006403000063
:020000040000fa
:04023400640300005f
:020000040000fa
:04023800640300005b
:020000040000fa
:04023c006403000057
:020000040000fa
:040240006403000053
:020000040000fa
:04024400640300004f
:020000040000fa
:04024800c8020000e8
:020000040000fa
:04024c006403000047
:020000040000fa
:040250006403000043
:020000040000fa
:04025400640300003f
:020000040000fa
:04025800640300003b
:020000040000fa
:04025c006403000037
:020000040000fa
:040260006403000033
:020000040000fa
:04026400640300002f
:020000040000fa
:04026800640300002b
:020000040000fa
:04026c006403000027
:020000040000fa
:040270006403000023
:020000040000fa
:04027400640300001f
:020000040000fa
:04027800640300001b
:020000040000fa
:04027c006403000017
:020000040000fa
:040280006403000013
:020000040000fa
:04028400640300000f
:020000040000fa
:04028800640300000b
:020000040000fa
:04028c006403000007
:020000040000fa
:040290006403000003
:020000040000fa
:0402940064030000ff
:020000040000fa
:0402980064030000fb
:020000040000fa
:04029c0064030000f7
:020000040000fa
:0402a00064030000f3
:020000040000fa
:0402a40064030000ef
:020000040000fa
:0402a80064030000eb
:020000040000fa
:0402ac0064030000e7
:020000040000fa
:0402b00064030000e3
:020000040000fa
:0402b40064030000df
:020000040000fa
:0402b80064030000db
:020000040000fa
:0402bc0064030000d7
:020000040000fa
:0402c00064030000d3
:020000040000fa
:0402c40064030000cf
:020000040000fa
:0402c80064030000cb
:020000040000fa
:0402cc0064030000c7
:020000040000fa
:0402d00064030000c3
:020000040000fa
:0402d40064030000bf
:020000040000fa
:0402d80064030000bb
:020000040000fa
:0402dc0064030000b7
:020000040000fa
:0402e00064030000b3
:020000040000fa
:0402e40064030000af
:020000040000fa
:0402e80064030000ab
:020000040000fa
:0402ec0064030000a7
:020000040000fa
:0402f00064030000a3
:020000040000fa
:0402f400640300009f
:020000040000fa
:0402f800640300009b
:020000040000fa
:0402fc006403000097
:020000040000fa
:040300006403000092
:020000040000fa
:04030400640300008e
:020000040000fa
:04030800640300008a
:020000040000fa
:04030c006403000086
:020000040000fa
:040310006403000082
:020000040000fa
:04031400640300007e
:020000040000fa
:04031800640300007a
:020000040000fa
:04031c006403000076
:020000040000fa
:040320006403000072
:020000040000fa
:04032400640300006e
:020000040000fa
:04032800640300006a
:020000040000fa
:04032c006403000066
:020000040000fa
:040330006403000062
:020000040000fa
:04033400640300005e
:020000040000fa
:04033800640300005a
:020000040000fa
:04033c006403000056
:020000040000fa
:040340006403000052
:020000040000fa
:04034400640300004e
:020000040000fa
:04034800640300004a
:020000040000fa
:100400006f8020000e7f22000e0188000000000097
:10041000000020000000e000020032000001200087
:100420002002880014000700a90007000000e00077
:1004300003003a00404a200001002000020037007b
:100440000000200001002000810f70000100320038
:1004500014000700000020000000e000020032004d
:1004600000000200000000006a030200000000001b
:100470000040da000000fe004440a9000000200017
:100480000000e0000300320000002000a00188000e
:100490004440a800000006008a1f78008b1f7800e7
:1004a0000000060091018800800478000000eb0045
:1004b0001a003700e284440032a0b4009905ba0063
:1004c000e284440032a0b4009906ba00e2844400f9
:1004d00032a0b4000006eb00476fde00fd07b2005b
:1004e000636ce10003003a00ebff07000000eb0043
:1004f0000a003700606ce10004003a00005deb0088
:100500008b05e900fdff3e00040037006168e10053
:10051000010032000086eb000b00070019c7ba008b
:100520001905ba000e04e00003003a000a00e000da
:10053000e0ff3a0000000600fe07b2009e018800be
:100540008a047800f5ff3700395dba008b05e900b1
:100550000c003200295dba008b05e900080032006a
:100560000c00e00003003a00e284440032a0b40032
:10057000f5ff370019ddba008b05e900faff3a00f4
:100580008904e800e184440032a0b40000000600c1
:10059000809fbe00821f78003400f8000000200019
:1005a000a00188000200fa008500a9000080200058
:1005b000104078000000fb004f00de00004f780084
:1005c00010802000104078000000fb004f00de008b
:1005d000104798001e80fb000000e9004f00de007d
:1005e0008000780000802000104078000000fb00b0
:1005f0000088b900000178009e80fb000080200088
:10060000104078000000fb000000ea000088b900fc
:100610000000780000004100000c88001e4090009f
:100620000080fb000000e9004f00de008000780041
:1006300010802000104078000000fb000088b90006
:10064000000178001e4090008080fb001080200098
:10065000104078000000fb000000ea000088b900ac
:100660000000780000004100300c88009e407800b7
:1006700061c060000080fb00610060004d00dd0093
:100680005116800001d0a1000100700050168800b2
:100690001e409000614060000080fb00610060002f
:1006a0004e00dd005116800001e0a1000100700045
:1006b000501688000080fa003400f9004f017800dd
:1006c0004f00be00004006000040da000000fe00bf
:0406d0000000050021
:020000040000fa
:1006d4000400fa001b00070040062000000f780009
:1006e400130037001e00780080407800008020004e
:1006f400014878001e007800004078008040ea003d
:1007040010802000014878000000eb0010079800da
:10071400030037001e0090000000e8001007980056
:100724001e009000e90f5000faff34001e0fe9008c
:10073400d0f92f009e007800808f5000e9ff3d0023
:10074400e5ff37000000fa000080eb006019880024
:100754000010200040168800113a8000f00b2000a1
:1007640000816000600420007105200023742000d3
:10077400804978008149780082497800713480008a
:1007840000fe2f00008060000030a000703488005c
:100794003136800000fe2f00008060003001b3007d
:1007a4003036880031368000f00f2e0080806000e3
:1007b400002021000100700030368800513680008e
:1007c40000fe2f00008060004001b3005036880016
:1007d40051368000f00f2e00808060000050210010
:1007e40001007000503688006136800000fe2f0042
:1007f400008060006001b30060368800103a800019
:10080400000178000260a00060042000710520004f
:100814002374200080497800814978008249780057
:1008240081088000f0fc2f00008060000050a000d0
:10083400800888000621ef0084e0a900f0702200ff
:100844006008880011e1a80091088000f0fc2f00e6
:10085400008060000040a000900888000a21ef009a
:100864008500a90030062000700888009500a800c3
:1008740013e1a8008421ef008221ef008021ef0022
:100884008461a800210c800080ff2f00008060009c
:100894006000b300200c88008a21ef008821ef005b
:1008a4008621ef008a61a800510c800080ff2f0090
:1008b400008060006000b300500c88009021ef00bd
:1008c4008e21ef0010002000600c88009061a900c8
:1008d400810c800080ff2f00008060005000b30076
:1008e400800c88009621ef0050d02000a00c8800d6
:1008f40060d02000900c88009661a900b10c8000a3
:1009040080ff2f00008060005000b300b00c88000e
:100914009c21ef00a0a02100d00c8800b0a02100f1
:10092400c00c88009c61a900e10c800080ff2f00ae
:10093400008060005000b300e00c88000080fa00e2
:0409440000000600a9
:020000040000fa
:100948000008000006000000000000000000000091
:020000040000fa
:020000040001f9
:0457f8000ff90000a5
:020000040000fa
:020000040001f9
:0457fc007f3f0000eb
:00000001FF
